:020000040000FA
:10000000E0460020150200001D0200001F02000053
:100010002102000023020000250200000000000071
:1000200000000000000000000000000027020000A7
:1000300029020000000000002B0200002D02000039
:100040002F0200002F0200002F0200002F020000EC
:100050002F0200002F020000FD0200002F0200000E
:10006000C1050000110600002F0200002F02000051
:100070002F0200002F0200002F0200002F020000BC
:100080002F0200002F0200002F0200002F020000AC
:100090002F0200002F0200002F0200002F0200009C
:1000A0002F0200002F0200002F0200002F0200008C
:1000B0002F0200002F0200000000000000000000DE
:1000C0002F0200002F0200002F0200002F0200006C
:1000D0002F0200002F0200002F0200002F0200005C
:1000E0002F0200002F0200002F020000000000007D
:1000F000000000002F020000000000002F0200009E
:1001000000000000000000000000000000000000EF
:1001100000000000000000000000000000000000DF
:1001200000000000000000000000000000000000CF
:1001300000000000000000000000000000000000BF
:1001400000000000000000000000000000000000AF
:10015000000000000000000000000000000000009F
:10016000000000000000000000000000000000008F
:10017000000000000000000000000000000000007F
:10018000000000000000000000000000000000006F
:10019000000000000000000000000000000000005F
:1001A000000000000000000000000000000000004F
:1001B000000000000000000000000000000000003F
:1001C000000000000000000000000000000000002F
:1001D000000000000000000000000000000000001F
:1001E000000000000000000000000000000000000F
:1001F00000000000000000000000000000000000FF
:10020000DFF80CD000F068F800480047ED0C000063
:10021000E04600200648804706480047FEE7FEE724
:10022000FEE7FEE7FEE7FEE7FEE7FEE7FEE7FEE7A6
:10023000A1030000010200002DE9F05F0546002047
:1002400092469B4688460646814640241BE0284647
:1002500041464746224600F02FF853465A46C01AF8
:10026000914110D311461846224600F016F82D1A77
:1002700067EB01084F4622460120002100F00DF8EF
:1002800017EB00094E41201EA4F10104DFDC4846B3
:1002900031462A464346BDE8F09F202A04DB203A37
:1002A00000FA02F1002070479140C2F1200320FAC9
:1002B00003F3194390407047202A04DB203A21FAC7
:1002C00002F00021704721FA02F3D040C2F120026F
:1002D0009140084319467047064C074D06E0E06818
:1002E00040F0010394E8070098471034AC42F6D37D
:1002F000FFF78AFFF41700001418000010B500245F
:1003000021E0124850F82400E0B100210F4840F8E5
:10031000241004EB44000E4901EB8000806888B192
:1003200004EB44020B4653F8220004EB440203EBB7
:1003300082029168884704EB4401054A52F8210083
:1003400000F052FB641C042CDBD310BD00610040A4
:10035000AC0600200548006800B972B60348006882
:1003600002490968491C014A116070477400002065
:100370000648006840B105480068401E034908600F
:100380000846006800B962B670470000740000209B
:1003900001480249086070470090D0037C000020AB
:1003A00010B500F07FFD40B10020774908604FF0A4
:1003B0008041C1F810017549086000F095FD0028E2
:1003C00055D073480068734908607148001D006883
:1003D000091D08606E4808300068091D08606C48F7
:1003E0000C300068091D0860694810300068091D5C
:1003F0000860674814300068091D086064481830B8
:10040000006864492031086061481C300068091D9B
:1004100008605F4820300068091D08605C4824308F
:100420000068091D08605A4828300068091D0860E6
:1004300057482C300068091D086055483030006866
:10044000544940310860524834300068091D086042
:100450004F4838300068091D08604D483C3000683E
:10046000091D08604A4840300068091D086000F016
:100470005DFD10B148484949086000F08BFC10B19F
:10048000FB204749086000F0A7FC38B145480178D7
:100490004548006861F303004349086000F0BEFC72
:1004A00018B14FF400704149086000F0D9FC40B128
:1004B0003F48006800F0010018B16FF001003C49AE
:1004C00008603C48006840F470003A49086000BF8A
:1004D00000BF00BFBFF34F8F00BF00BF00BF00BF12
:1004E00000BF00BFBFF36F8F00BF00BF00BF00BFE2
:1004F00000F02EFC20B1304800682449203108600B
:1005000000BF2D480838006800F0004028B92A488C
:10051000001F006800F0004090B3012000F028FDAB
:10052000122025490839086000F02CFD12214FF0F7
:100530001020C0F8041200F025FD002000F018FD86
:1005400000BF00BF00BF00BF00BFBFF34F8F00BFA1
:1005500000BF00BF17487C38006800F4E06017490E
:100560000843001D13497C39086000BF00BF00BF6D
:10057000BFF34F8F00BF00BF00BF00BF00BFFDE74C
:10058000FFE7FFF705FF10BD0C01004038050040F4
:100590000404001020C50040488103008C56004030
:1005A00018F5004058020010E40E0040409602404A
:1005B0000004004088ED00E0081200100000FA0579
:1005C00008B50F480068012807D100200C490860D1
:1005D0000C48D0F84001009000BF0B480068401C58
:1005E000094908600820002807DB00F01F020121EC
:1005F0009140064A430942F8231000BF08BD00009D
:1006000040810040008000406800002080E200E05F
:1006100008B50748006850B1002005490860054842
:10062000D0F84001009000BF03480068804708BD33
:1006300040910040009000406C00002000280DDB3D
:1006400000BF00BF00F01F0201219140420992004B
:1006500002F1E022C2F8001100BF00BF704702E0C3
:1006600008C8121F08C1002AFAD17047704700203D
:1006700001E001C1121F002AFBD170472DE9F041B2
:1006800007460D4616461748066000241CE016482B
:10069000005D04EB4401154A42F82100002004EB00
:1006A000440102EB810108710F49085D002100F04F
:1006B00081FA0D49085D0E4A611C00F011FA0A49E1
:1006C000085D00F0B9F9641C042CE0D309493846F0
:1006D00000F04CFF0749284600F048FF0420BDE821
:1006E000F08100002C000020F01700004C060020D4
:1006F00001080000F90600002DE9F04704460E4607
:100700003546701E3A4911F80080681E00EB400023
:10071000384901EB800090F80490B9F1000F09D03E
:10072000B9F1010F1AD0B9F1020F2ED0B9F1030FB0
:1007300058D142E02A4604212F48006800F044FFC7
:100740000121681E00EB40002A4A02EB8000017183
:100750002A480068401C2949086046E0022C13D052
:10076000042C11D12448076847F000472A46042189
:10077000384600F029FF0221681E00EB40001D4AA8
:1007800002EB8000017100BF2FE0022C14D0042C7A
:1007900012D1404600F0EEF907460321681E00EB37
:1007A0004000144A02EB800001712A4604211248DD
:1007B000006800F009FF00BF17E0022C11D0042CE4
:1007C0000FD1404600F042F90021681E00EB4000C6
:1007D000084A02EB8000017108480068401E074982
:1007E000086002E04FF0000900BF00BFBDE8F087DD
:1007F000F01700004C0600202400002028000020F4
:1008000070B50446002005E00649095CA14200D10C
:10081000451C401C0428F7D329460220024A1268CE
:10082000904770BDF01700002C00002010B500F0BC
:10083000D1F810BD10B5032000F036F800F0D2F862
:10084000032000F041F810BD10B50446042C07D871
:1008500034B1611E034A505C4FF0FF3100F094F94F
:1008600010BD0000E817000010B50446042C06D89F
:100870002CB1611E024A505C002100F085F910BDC8
:10088000E817000010B5002408E00649085D0121C2
:1008900000F090F9601CFFF7D7FF641C042CF4D320
:1008A000042010BDE817000010B50446042C07D83A
:1008B00034B1611E034A505C4FF0FF3100F064F91F
:1008C00010BD0000EC17000010B50446042C06D83B
:1008D0002CB1611E024A505C002100F055F910BD98
:1008E000EC17000070B500F00DF805460E464FF409
:1008F0007A72002328463146FFF79EFC04462046C4
:1009000070BD00002DE9F04100F064F904460D4689
:1009100006480023026820462946FFF78DFC06465C
:100920000F4630463946BDE8F0810000080000203F
:1009300010B500F067F90149086010BD08000020FB
:100940002DE9F04104460D4616460C4806600C4859
:10095000056024B90B49002000F086F90CE00A4933
:10096000096804FB01F04FF47A7100FB01F70549B7
:10097000384600F079F900BFBDE8F0810C00002096
:1009800010000020CD0C000008000020034804499E
:10099000086001460248001D016070473546526EEE
:1009A0000006014000B50246D00308490860081D52
:1009B000006840F00100091D08600120091D086061
:1009C00003490860FFF7E2FF00BD00000405014095
:1009D0000000014001200249086000E020BFFDE75F
:1009E0000005004030BF704710B501460120884027
:1009F0000F4A10600620002817DB00F01F030122B9
:100A00009A400C4B440943F8242000BF00BF00BFAC
:100A1000BFF34F8F00BF00BF00BF00BF00BF00BFCC
:100A2000BFF36F8F00BF00BF00BF00BF10BD00004D
:100A30000863004080E100E0024A034941F82020B9
:100A4000704700000C0003000007005070B502461C
:100A5000002039E000EB40011D4B53F8211091427A
:100A600031D100241B4900EB40051E4606EB8505ED
:100A70006D6841F8254000EB40011C4604EB810104
:100A80004968154C04EB8101D1F8003100EB4001BD
:100A9000344604EB81010C790121A1400F4C216007
:100AA000062100290DDB00BF00BF01F01F05012456
:100AB000AC404D09AD0005F1E025C5F8004100BF8F
:100AC00000BF00BF00BF401C0428C3D370BD00009E
:100AD000AC0600200061004000600040046300405C
:100AE00070B504460E4615461E480068082800D317
:100AF00070BD00211C481B4A126840F8221019489A
:100B000001780120884019490860012040EA04204A
:100B100040F400311448134A126840F8221011487A
:100B2000006800EB4000124941F820400D48006881
:100B30000C49096801EB41010D4A02EB8101486053
:100B40000848006800EB4000114601EB800085601A
:100B50002046FFF77BFF03480068401C01490860FE
:100B600000BFC5E77000002010650040086300402A
:100B7000AC0600200146034A1268CA4002F0010098
:100B8000704700001005005001F0010222B101225F
:100B90008240044B1A6004E001228240014B1B1D7D
:100BA0001A6070470805005000200149086070472E
:100BB0001405005021B90023054A42F8203005E011
:100BC000012903D10123024A42F820307047000076
:100BD0000007005030B5012107484164074802680A
:100BE000C81E07490968A0FB0150AB1840F100047A
:100BF0001846214630BD000000800040448500407A
:100C00006800002010B50020134908600120134936
:100C100048600020124908600320091D0860002078
:100C20000F490C310860801E0D493C3108600120DD
:100C30000C49086000040949C1F80403002009496F
:100C4000C03908600820FFF7F9FC01200349C8609B
:100C50000860102010BD00006800002000800040E7
:100C6000048500400082004070B504460D461348DC
:100C70000560FCB1012012494860C860002011499C
:100C800008600320091D08600E483C300460002005
:100C90000C490C31086001200B4908600004084928
:100CA000C1F804030920FFF7C9FC01200449C8600A
:100CB000086002E001200249486070BD6C0000201D
:100CC00000900040049500400092004010B5FFF7EE
:100CD00009FE0446214603480068034A126890470B
:100CE00010BD00000C0000201000002010B5FFF720
:100CF0005BFFFFF7C7FD12490860FFF719FE0420EC
:100D000000F0F4F9042000F0FFF90E4B01220E4927
:100D1000042000F0E5FC0620FFF744FE094A042108
:100D20000220FFF7ABFC094908600548006828B1BC
:100D3000034801680548006800F0D4FB002010BD9E
:100D400000000020E10F000055100000040000200A
:100D50000F4802684FF08050D0F83411082A14D19F
:100D6000062910D2DFE801F0030507090B0D00206A
:100D700070470020FCE70020FAE70020F8E7002099
:100D8000F6E70120F4E70120F2E70020F0E7000099
:100D9000300100100F4802684FF08050D0F8341135
:100DA000082A14D1062910D2DFE801F0030507094B
:100DB0000B0D012070470020FCE70020FAE700201F
:100DC000F8E70020F6E70020F4E70020F2E7002033
:100DD000F0E70000300100100F4802684FF080502B
:100DE000D0F83411082A14D1062910D2DFE801F016
:100DF000030507090B0D012070470020FCE70020C8
:100E0000FAE70020F8E70020F6E70020F4E70020EA
:100E1000F2E70020F0E70000300100100F48026800
:100E20004FF08050D0F83411082A14D1062910D27E
:100E3000DFE801F0030507090B0D012070470020D2
:100E4000FCE70020FAE70020F8E70020F6E70020A2
:100E5000F4E70020F2E70020F0E700003001001086
:100E60000F4802684FF08050D0F83411082A14D18E
:100E7000062910D2DFE801F0030507090B0D012058
:100E800070470120FCE70120FAE70120F8E7012084
:100E9000F6E70120F4E70120F2E70020F0E7000088
:100EA000300100100F4802684FF08050D0F8341124
:100EB000082A14D1062910D2DFE801F0030507093A
:100EC0000B0D012070470120FCE70120FAE701200B
:100ED000F8E70120F6E70120F4E70120F2E700201F
:100EE000F0E70000300100100F4802684FF080501A
:100EF000D0F83411082A14D1062910D2DFE801F005
:100F0000030507090B0D012070470120FCE70120B4
:100F1000FAE70120F8E70120F6E70120F4E70120D5
:100F2000F2E70020F0E70000300100100F480268EF
:100F30004FF08050D0F83411082A14D1062910D26D
:100F4000DFE801F0030507090B0D012070470020C1
:100F5000FCE70020FAE70020F8E70020F6E7002091
:100F6000F4E70020F2E70020F0E700003001001075
:100F700000B501460248016000F004F800BD000021
:100F800004E5014000BF024800680028FBD070471C
:100F900000E4014030B50246094B1B6843F23904B6
:100FA000084D05FB034323F00043054C23608B1AD7
:100FB0005B1C2468B4FBF3F503FB1543981830BDA4
:100FC000300000206D4EC64110B10349086002E0B8
:100FD0000249014A116070473000002015CD5B07BF
:100FE00070B504460D461A48D0F80804402806D3C8
:100FF0001749D1F80C04FFF767FC00BFFEE714485F
:10100000D0F80804401C1249C1F808040846D0F87A
:10101000000401EB001004700846D0F8000401EB56
:1010200000104560FFF75EFC0021094AD2F8002459
:10103000074B03EB0212C2E90201184690F80004C4
:10104000401C00F03F001946C1F8000470BD0000CC
:101050008000002070B504460D46FFF77BF9294655
:101060002046FFF7BDFFFFF783F970BD70B504465A
:101070000D461646FFF76EF91B48D0F8080418B95C
:10108000FFF776F9002070BD1748D0F80404164920
:1010900001EB0010007820700846D0F8040401EB42
:1010A0000010406828600846D0F8040401EB0010E6
:1010B000C1688068C6E900010B4890F80404401C30
:1010C00000F03F000849C1F804040846D0F80804BD
:1010D000401EC1F80804FFF74BF9034890F80804D4
:1010E000401CC0B2CFE70000800000200021054A6C
:1010F000C2F80014C2F80414C2F808141146C1F86A
:101100000C0470478000002010B50446002015E054
:101110000022104941F8202000210CE000220E4B53
:1011200003EB401343F831200B4B03EB401303EB6D
:10113000C1035A60491C0429F0DB401C0928E7DB85
:101140000649032000F012FA0449022000F00EFACA
:1011500010BD00002806002008050020CD11000069
:101160001FB500220321164800F02EFA27E0FFF7F2
:101170000DFC6A4602A903A8FFF778FFE8B1002436
:1011800013E010489DF80C1000EB411050F83400AB
:1011900050B10C489DF80C1000EB411050F8342071
:1011A0009DF80C0002999047641C07489DF80C10AC
:1011B00050F82100A04202D9E3E7FFF73BFBD6E756
:1011C000400D0300080500202806002070B50446E5
:1011D0000D46022C06D10022032144F6206000F0C7
:1011E000F3F903E0032C01D1FFF720FB70BD0000F1
:1011F00070B504460E46AD48006808287ED2AC485B
:10120000007805287BD2DFE800F0032F96C3F700B3
:10121000062C13D10020A7490860002503E02846CA
:10122000FFF722FB6D1CA44800688542F7D906220F
:101230000721A248006800F0C7F914E0072C12D17A
:10124000002503E02846FFF7FFFA6D1C9A48006866
:101250008542F7D901209649087005220621984851
:10126000006800F0B1F91EE1062C22D18F48006819
:10127000401C944908600020934908608F4800682A
:10128000C8280AD98D480068C8388C4908608F483A
:101290000068C8388D49086004E064208749086008
:1012A0008A490860062207218448006800F08CF90A
:1012B00040E0072C0DD18649864A126851F8220079
:1012C000FFF7D2FA072208217C48006800F07CF979
:1012D00030E0082C2ED17E497E4A126851F8220057
:1012E000FFF7B2FA7B480068401C7A4908607648EC
:1012F0000068401C74490860084601E0D4E0D1E071
:10130000006870490968884206D2062207216B48A6
:10131000006800F059F90DE064480068401C63491A
:101320000860022062490870002205216A480068AE
:1013300000F04AF9B7E066485E49096850F82100B4
:10134000B0421BD15B480068401C5A4908600846FF
:10135000006860490968884209D10320544908702F
:10136000002206215648006800F02EF90FE0002206
:1013700005215948006800F027F908E004204C498D
:101380000870052206214E48006800F01DF98AE029
:10139000062C15D105221146002000F015F9002574
:1013A00003E02846FFF760FA6D1C43480068854259
:1013B000F7D9062207214948006800F005F919E02D
:1013C000072C17D1002503E02846FFF73DFA6D1CD6
:1013D000394800688542F7D90020364908603D4900
:1013E000086001203249087005220621344800684F
:1013F00000F0EAF857E0FFE7062C0DD10020324953
:1014000008600522114600F0DFF8062207212C486B
:10141000006800F0D9F844E0072C11D12A48006890
:101420002F490968884204D227480068401CFFF70A
:101430001BFA072208212948006800F0C5F830E0AF
:10144000082C2ED120480068401CFFF7FDF91E48EB
:101450000068401C1C49086008460068204909686B
:10146000884206D2062207211548006800F0ACF831
:1014700017E000200F490860164908600B49086012
:10148000164800680D490860144800680F49086054
:10149000012007490870052206210948006800F06C
:1014A00093F800E000BF00BF70BD000034000020D2
:1014B0004000002038000020600000205000002084
:1014C0005800002044000020480000205C0000205C
:1014D0007C0600203C0000204C000020540000202E
:1014E000640000202DE9F04106460F4619480760C8
:1014F000194806601948FFF767FD002509E01648FE
:1015000001680120FFF746FD0446154840F82540D4
:101510006D1C082DF3D31349022000F027F8114960
:10152000062000F023F80F49052000F01FF80D49B0
:10153000072000F01BF80B49082000F017F80522DF
:1015400006210948006800F03FF8FFF709FEBDE8F2
:10155000F0810000600000206400002015CD5B07D2
:101560007C060020F11100005800002070B50446F0
:101570000D46124850F82400042817D20F4951F89C
:101580002400A1F5907101EB441141F83050002185
:101590000B4A02EB441202EBC0025160074951F8BA
:1015A0002410491C054A42F8241005E003E00548D0
:1015B0000068FFF789F9FAE770BD000028060020EF
:1015C00008050020200000202DE9F04706460D46C2
:1015D00017464FEAD67826F000496420B9FBF0F4AC
:1015E000E4B9002017E000EB80013B4A02EB8101E7
:1015F000097C79B100EB800102EB8101097AA942F3
:1016000008D1002100EB8002334B03EB82021174FE
:10161000BDE8F087401C0428E5DBF9E7002023E063
:1016200000EB80012C4A02EB8101097CD9B100EB6F
:10163000800102EB8101097AA94214D100EB8001FB
:1016400042F8214000EB800102EB810181F811801A
:1016500000EB800102EB8101CF6000EB800102EB27
:1016600081014C60D4E7401C0428D9DB00202AE02B
:1016700000EB8001184A02EB8101097C11BB0121BA
:1016800000EB8002144B03EB8202117400EB80012B
:101690001A4602EB810181F8118000EB800142F8CB
:1016A000214000EB800203EB8202157200EB800107
:1016B0001A4602EB8101CF6000EB800102EB810151
:1016C0004C60A5E7401C0428D2DB03E00348006817
:1016D000FFF7FAF8FAE70000B80400201C00002029
:1016E0002DE9F04104460D4616461F460E48076098
:1016F0000E4805600E4804600E493046FFF736FF7D
:10170000002007E0002100EB80020B4B03EB82027C
:101710001174401C0428F5DB32460348016864203C
:10172000FFF70EF9BDE8F08114000020180000203A
:101730001C0000203D170000B80400202DE9F041F6
:1017400005468846012D48D1002444E004EB84007E
:10175000234901EB8000007CA0B304EB840051F826
:10176000200048B104EB840051F82000401E04EB37
:1017700084011B4A42F8210004EB8400184951F807
:101780002000F8B904EB840001EB8000067A04EB3A
:10179000840001EB8000C76839463046114A126860
:1017A000904704EB84000E4901EB8000407C50B16F
:1017B00004EB840001EB8000406804EB8401084ADC
:1017C00042F8210006E0002004EB8401044A02EB09
:1017D00081010874641C042CB8DBBDE8F0810000B2
:1017E000B8040020180000200D0E0F101C1D1E1F35
:1017F0000B0C1819141800000000002080000000D5
:101800005E06000094180000800000206046000082
:101810006E06000000000000000000000F00000045
:1018200000000000000000000000000000000000B8
:101830000000000000000000640000000000000044
:101840000000000000000000000000000000000098
:101850000000000000000000000000000000000088
:101860008813000020030000200300006400000033
:101870002003000000000000000000000000000045
:101880000000000000000000000000000000000058
:041890000090D003F1
:0400000500000215E0
:00000001FF
